:020000021000EC
:1000000000000420B19F0100E99F0100F15D0100A3
:10001000ED9F0100FD5D0100035E01000000000096
:10002000000000000000000000000000D976010080
:10003000F59F010000000000717701008177010049
:10004000C9D7010095510100FB9F0100FB9F0100F2
:10005000FB9F0100FB9F0100FB9F0100FB9F010034
:10006000FB9F0100FB9F0100ED510100D5510100F4
:10007000FB9F01005DD90100FB9F0100AD51010014
:10008000FB9F0100FB9F0100FB9F0100FB9F010004
:10009000FB9F0100FB9F0100FB9F0100FB9F0100F4
:1000A000FB9F0100FB9F0100FB9F0100FB9F0100E4
:1000B000FB9F0100FB9F010000000000000000000A
:1000C000FB9F0100FB9F0100FB9F0100FB9F0100C4
:1000D000FB9F0100FB9F0100FB9F0100FB9F0100B4
:1000E000FB9F0100FB9F0100FB9F0100000000003F
:1000F00000000000FB9F010000000000FB9F0100CA
:1001000010B5054C237833B9044B13B10448AFF351
:1001100000800123237010BDF80F002000000000B4
:100120002474020008B5034B1BB103490348AFF325
:10013000008008BD00000000FC0F002024740200B5
:10014000154B002B08BF134B9D46A3F5803A0021A9
:100150008B460F461348144A121A11F0D1FD0F4B6B
:10016000002B00D098470E4B002B00D09847002062
:10017000002104000D000D48002802D00C4806F0B4
:1001800055FC11F0CDF82000290007F01DF906F00C
:100190004AFC00BF0000080000000420000000002E
:1001A00025730100F80F0020A0B300202D6A010084
:1001B0000000000038B51248114D00F035FD012156
:1001C0000F4800F0D7FC00F0C6FD062888BF0D4B95
:1001D0000B488CBF93F960104FF0FF31002200F004
:1001E00073FD0024224601230021284600F0CEFCA6
:1001F0004FF4FA7009F0A8FA84F00104F2E700BFA6
:1002000034100020040200207047000010B500F0F8
:10021000A2FD002800F0EA80764B93F90030764C7E
:10022000237000F098FD01288ABF724B4FF0FF3316
:1002300093F91030637000F08EFD02288ABF6D4B79
:100240004FF0FF3393F92030A37000F084FD0328B2
:100250008ABF684B4FF0FF3393F93030E37000F002
:100260007AFD04288ABF634B4FF0FF3393F9403087
:10027000237100F070FD05288ABF5E4B4FF0FF33FD
:1002800093F95030637100F066FD06288ABF594B20
:100290004FF0FF3393F96030A37100F05CFD072845
:1002A0008ABF544B4FF0FF3393F97030E37100F085
:1002B00052FD08288ABF4F4B4FF0FF3393F980302F
:1002C000237200F048FD09288ABF4A4B4FF0FF33E4
:1002D00093F99030637200F03EFD0A288ABF454BC7
:1002E0004FF0FF3393F9A030A37200F034FD0B28D8
:1002F0008ABF404B4FF0FF3393F9B030E37200F008
:100300002AFD0C288ABF3B4B4FF0FF3393F9C030D6
:10031000237300F020FD0D288ABF364B4FF0FF33CA
:1003200093F9D030637300F016FD0E288ABF314B6D
:100330004FF0FF3393F9E030A37300F00CFD0F286A
:100340008ABF2C4B4FF0FF3393F9F030E37300F08A
:1003500002FD10288ABF274B4FF0FF3393F900317D
:10036000237400F0F8FC11288ABF224B4FF0FF33B2
:1003700093F91031637400F0EEFC12288ABF1D4B14
:100380004FF0FF3393F92031A37400F0E4FC1328FD
:100390008ABF184B4FF0FF3393F93031E37400F00C
:1003A000DAFC14288ABF134B4FF0FF3393F9403126
:1003B000237500F0D0FC15288ABF0E4B4FF0FF3399
:1003C00093F9503163750D4C0D4B236004F0ACFF75
:1003D0000C4B2168186002460B4800F03EFA0B4AAD
:1003E0000B490948BDE8104006F01BBB4FF0FF3336
:1003F00015E700BF04020020141000202C1000207C
:10040000D0520200301000203410002000020020E2
:10041000150D0100D0E90030834205D013F9012BFE
:100420008A42F9D10120704700207047D0E90002CC
:10043000101A7047D0E900239B1A994234BF5056D6
:100440004FF0FF30704710B5D0E9002300209B1A11
:10045000984204D014568C4203D00130F8E74FF094
:10046000FF3010BD10B50C1A134605D001462246C8
:10047000184611F0E1FB0346181910BD2DE9F843A9
:10048000D0E901739F420546894607D017B191F91B
:1004900000303B7001376F60BDE8F8830668BE1B13
:1004A000731C02D116480DF0C3FA002E14BF344657
:1004B0000124341902D21CB9A04605E04FF0FF34E4
:1004C000204606F0BDFC804618EB060F1CBF99F8CD
:1004D000003008F80630424639462868FFF7C2FF68
:1004E0006968421C3846FFF7BDFF0646286808B118
:1004F00006F0C0FC4444C5E90086AC60CCE700BF10
:10050000D852020070B50024C0E9004405460E46EA
:1005100084603368A34206D9716828462144FFF7F6
:10052000ADFF0134F5E7284670BD000008B590F92D
:1005300000305A1C04D120220E490F4805F028FE35
:10054000012259B11F2B86BF03F01F030B494FF047
:10055000A04102FA03F3C1F8083508BD1F2B86BF7E
:1005600003F01F0305494FF0A04102FA03F3C1F85D
:100570000C35F2E7C85302004F540200000300504C
:100580002DE9F04706460F46904699460725002478
:100590004FF0010A00213046FFF7C8FF49FA05F184
:1005A00001F001013846FFF7C1FF642006F096FD17
:1005B00030460121FFF7BAFF40460AF02FF808B194
:1005C0000AFA05F00443642006F088FD15F1FF35B2
:1005D000E4B2DFD22046BDE8F08700002DE9F74FF6
:1005E000DDF830809DF834B00E9F9DF83CA001935B
:1005F00004460D4616464FF00009304B324613F8BC
:1006000009302946204609F10109FFF7B9FFB9F180
:10061000080FF2D1019B324629462046FFF7B0FF72
:100620000AF10503DBB2324629462046FFF7A8FF50
:100630005FFA88F3324629462046FFF7A1FFC8F348
:100640000723324629462046FFF79AFFC8F307439F
:10065000324629462046FFF793FF4FEA1863324699
:1006600029462046FFF78CFF5B4632462946204646
:10067000FFF786FFB846BBF1000F0CD1A8EB0703CC
:100680009A4514DD0023324629462046FFF778FFBD
:1006900008F8010BF2E7A8EB07039A4507DD18F805
:1006A000013B324629462046FFF76AFFF3E7002167
:1006B000204603B0BDE8F04FFFF738BFF752020005
:1006C00070B586B005AD00240426CDE90256CDE90B
:1006D00000440594FFF782FF32460449284611F092
:1006E000DFF9B0FA80F0400906B070BDF2520200A6
:1006F0002DE9F34100F11806044690F83210304617
:10070000FFF798FE8046012006F09AFB00252B4655
:100710000746057001224146009504F0DAFD94F881
:100720003310A7633046FFF785FE8046012006F0B0
:1007300087FB2B460122074605704146009504F0D1
:10074000C8FD94F83410E7633046FFF773FE804627
:10075000012006F075FB41460746057004F0AFFD29
:1007600094F8351027643046FFF764FE07460120F1
:1007700006F066FB39460570064604F0A0FD666487
:1007800002B0BDE8F08110B50446806B28B102F0DC
:1007900086FA0121A06B06F079FB0023E06BA363CE
:1007A000FF2384F8323028B102F079FA0121E06B9E
:1007B00006F06CFB0023206CE363FF2384F83330E6
:1007C00028B102F06CFA0121206C06F05FFB0023D7
:1007D000606C2364FF2384F8343028B102F05FFAA0
:1007E0000121606C06F052FB0023FF22636484F851
:1007F000352084F8313010BD70B5034690F83100D3
:10080000C0B193F83250591E03F10F0411F8012FB3
:10081000AA420ED093F8336096420AD093F834601F
:10082000964206D093F83560964202D0A142EDD1AF
:10083000002070BD0120FCE710B5431E044600F106
:100840001702FF2103F8011F9342FBD12046FFF757
:100850009AFF012384F8303010BD38B504461546A0
:100860001830FFF74FFE294604F12400FFF74AFE37
:100870000123002584F830304FF6FF73204684F8BA
:1008800031506386A386C4E90E55C4E91055FFF7BD
:10089000D3FFA564204638BD7F290AD84A09012321
:1008A00001F01F0103FA01F150F822300B4340F828
:1008B000223070477F290BD84A09012301F01F011C
:1008C00003FA01F150F8223023EA010340F8223004
:1008D00070477F290CD84A09012301F01F0103FA50
:1008E00001F150F82230194214BF01200020704756
:1008F000002070472DE9F04F00F118098FB0054630
:10090000002448460593CDE90312CDE90A44CDE918
:100910000C44FFF78BFD43080646029305F12407BC
:10092000B44210D021464846FFF784FD421C0146E0
:1009300007D03846FFF76EFD18B921460AA8FFF721
:10094000ABFF0134ECE76E1E0F3516F8011F0B06E6
:1009500002D40AA8FFF7AEFFAE42F6D14FF0000B6B
:100960000AAE029B9B4500F096804FEA4B07FFB210
:1009700039463046FFF7ADFF002800F09E8007F1B2
:1009800001085FFA88F841463046FFF7A2FF0028C9
:1009900000F0938039463046FFF78CFF41463046E1
:1009A000FFF788FF39464846FFF744FD0DF1380C44
:1009B00000250CF8205D2B4601220146009560467B
:1009C00004F087FC41464846FFF734FD0DF1380C32
:1009D00001460CF81C5D2B4600950122604604F090
:1009E00078FC5FFA85FA544559D951463046FFF7ED
:1009F00070FF002851D051464846FFF71BFD4FF0CD
:100A00000003014608A88DF8203004F058FC534636
:100A100008AA07A906A8FFF753FE00283DD00AF14F
:100A20000105EDB24FF0000BA5422ED2294630460B
:100A3000FFF74FFF30B329464846FFF7FBFC01465E
:100A400009A88DF824B004F03AFC2B4609AA07A99E
:100A500006A8FFF735FE0290A0B1039B189A1F70FD
:100A6000049B83F80080059B06A883F800A01570FE
:100A700002F015F907A802F012F9029B18460FB010
:100A8000BDE8F08F0135EDB2CEE706A802F007F918
:100A900007A802F004F90023F0E70135A1E706A852
:100AA00002F0FDF807A802F0FAF839463046FFF7E1
:100AB000F3FE41463046FFF7EFFE0BF1010B50E726
:100AC00013B50446FFF798FED8B194F8303013B947
:100AD0000E4805F0BDFD2046FFF755FE04F1350335
:100AE000009304F1330204F1340304F1320120468F
:100AF000FFF700FF38B12046FFF7FAFD012384F825
:100B0000313002B010BD0248E3E700BF6953020074
:100B10008F530200F0B5044685B01D460E461746B9
:100B2000EDB2FFF7CDFF0122CDE9006294F8343039
:100B3000A06BCDE90275D4E90F12FFF74FFD05B0A8
:100B4000F0BD10B5431EA2B0044600F11702FF210C
:100B500003F8011F9342FBD18822FF21684611F060
:100B6000CFF888236A464FF480512046FFF7D2FF22
:100B700022B010BD07B502AA012302F8011D4FF4EF
:100B80008011FFF7C7FF03B05DF804FB072907B525
:100B900002D90C4805F05CFD002B14BF0223002392
:100BA000002A18BF43F0010302AA01F5801102F8E0
:100BB000013D01F580510123FFF7ACFF03B05DF863
:100BC00004FB00BFFF520200282907B502D90B48D9
:100BD00005F03EFD002B14BF02230023002A18BF9E
:100BE00043F0010302AA01F5005102F8013D01237F
:100BF000FFF790FF03B05DF804FB00BFFF52020057
:100C000070B501242346846400220F210546FFF7B6
:100C1000DBFF204606F052FA002328461A460F2131
:100C2000BDE87040FFF7D0BF13B50446FFF7E8FFFB
:100C300002AA022302F8013D002101232046FFF70A
:100C400069FF2046FFF77DFF2046FFF7F5FD02B064
:100C500010BD000081F080037E2B73B506460D4663
:100C6000144602D8164805F0F3FC172A02D911469B
:100C70001448F8E7815C0B0609D4FF238DF8073090
:100C80000DF10702012301F58051FFF743FFFF2D0E
:100C9000355509D001230DF1070205F58051304685
:100CA0008DF80740FFF736FF01230DF1070204F529
:100CB000845130468DF80750FFF72CFF02B070BD0D
:100CC000345302005253020070B5054618300E46E8
:100CD0001446FFF7B8FB011E03DA0848314605F059
:100CE000B7FC0F2C02D921460548F8E722462846D2
:100CF000C9B2BDE87040FFF7ADBF00BF1A53020094
:100D00005253020010B50446006808B106F0B2F86C
:100D1000204610BD10B50446FFF735FD04F1240050
:100D2000FFF7F0FF04F11800FFF7ECFF204610BDBD
:100D300030B5A1F11004002500F00F02D3B2092A4A
:100D4000CCBF373330338B73CD7302398C424FEACB
:100D50001010F1D130BD22207047000030B50121C4
:100D600085B0192001F088FB0121192001F0C0FB9A
:100D7000204A0023D3604FF080420121C2F85C3545
:100D800003F1804303F588334FF48032C3F84823DE
:100D90002020C3F8082301F06FFB0121212001F07E
:100DA0006BFB0121202001F0A3FB0121212001F098
:100DB0009FFB114B01221A60104A1368002BFCD0D4
:100DC0000F4B0024C3F80045C3F800450D4B0FCB73
:100DD0006D4685E80F00234620464FF0FF3155F859
:100DE00023200133042BC2F80005C2F86015F6D1A8
:100DF00005B030BDF0ED00E004200040442100408B
:100E0000002000406854020038B54FF08055044679
:100E10002146D5F8A800FFF78BFFD5F8A40004F110
:100E20001001FFF785FF202038BD000072B64FF09B
:100E30008043B022C3F81C25BFF34F8F0549064BF2
:100E4000CA6802F4E0621343CB60BFF34F8F00BF68
:100E5000FDE700BF00ED00E00400FA0570470B68F5
:100E600003604B6843608B6883607047C3680BB155
:100E70009B68184770470020704710B5044680698A
:100E800020B10368DB6898470023A36110BD704759
:100E900001207047D0F82031D0F82401181A48BF3B
:100EA00000F580707047D0F82421D0F820319A42A4
:100EB0001DBFD0F82431C01890F820004FF0FF304B
:100EC0007047D0F82421D0F820319A420CD0D0F8C5
:100ED0002431034493F82020D0F824310133DBB2CD
:100EE000C0F82431104670474FF0FF30704770B59E
:100EF00003681446DB690546984704F47063B3F54C
:100F0000407F04F0F0030CBF0721082104F00F021A
:100F1000302B0CBF02230123012A07D0901E42422E
:100F20004241A869BDE8704002F012B80222F8E719
:100F30007FB5836904460E4663B94FF4807005F0AF
:100F40007FFF3346054694F91D2094F91C1002F0EA
:100F500099FAA56194F91E20531C05D094F91F300D
:100F6000A069032102F09EFAA06970B1084B0393B7
:100F70000022084B019369460094029202F021F886
:100F8000039B13B19B686846984704B070BD00BFCF
:100F900078540200990F010013B50446A06901F0CE
:100FA000EEFFC0B1A069036801225B690DF1070182
:100FB0009847D4F82031D4F824210133DBB293428E
:100FC000ECD0D4F820219DF80710224482F820109C
:100FD000C4F82031E2E702B010BD13B504468DF825
:100FE0000710A06901F0DCFF0028FAD0A0690368AF
:100FF00001221B690DF107019847013018BF01203C
:1010000002B010BD70B504460D461646A06901F049
:10101000C7FF0028FAD0A069D0F8FC3001211B6B73
:10102000FC309847A069036832461B6929469847F7
:10103000013018BF012070BD10B4D0E9013401683F
:101040006210E40701EB020048BF8A585DF8044BC8
:1010500048BFD3581847000070B5FFF77CFE50B367
:10106000164B93F90060164CFFF775FE012888BFF8
:10107000124B4FF000054FF47A7288BF93F910308D
:101080002677C4E901520F4A226098BF4FF0FF3320
:101090002022C4E9052563774FF48072FF23294697
:1010A00004F12000A377E37710F02AFEC4F8205162
:1010B000C4F8245170BD4FF0FF36D4E7040200207D
:1010C000801000208C540200002070477047704749
:1010D00010B5D0F84C452CB1236820465B68984782
:1010E000A468F8E710BD38B5D0F84C450D4634B1CA
:1010F000236820469B6829469847A468F7E738BDCF
:10110000004870474C550200004870475455020093
:1011100010B5054B0360044603F0BFFC204603F006
:10112000D5FC204610BD00BFCC54020010B50446CB
:10113000FFF7EEFF20464FF4AA6105F0A7FE204618
:1011400010BDF7B5D0F84C4505460E460023A4B1B6
:1011500023683146DF680DF1030201AB2046B84732
:101160009DF803100429034605D0019A284602F091
:10117000F1FE03B0F0BDA468E9E7019A9DF8031001
:10118000F4E770B505460E4622B10021BDE8704077
:1011900002F0D6BCD0F84C455CB1236800221B6934
:1011A00031462046984710B101212846EEE7A46851
:1011B000F2E72146F9E770B5D0F84C450E460546F2
:1011C00000213CB12368314620465B699847A468FA
:1011D0000146F6E72846BDE8704002F0B1BDF8B51B
:1011E000D0F84C4505460E4617463CB123682046CC
:1011F0009B693A4631469847A468F6E7284601219C
:10120000BDE8F84002F0FABD70B5002186B0044692
:1012100003F09CF80023ADF8063023898DF81030D8
:101220001B0AA188E2888DF811304FF4897540F2CD
:101230000123ADF80450ADF81230022540F203133B
:10124000EF268DF807508DF809508DF80C10012508
:10125000090A8DF80E20ADF81430120A04F10A03C1
:101260008DF808608DF80A508DF80B008DF80D1080
:101270008DF80F2001AD05AE1C462A4603CAB242C6
:1012800018605960154603F10803F6D112881A80D8
:10129000204606B070BD40F2023310B50446A0F8F7
:1012A000C83400F2CA40FFF7AFFD94F8C8341844C0
:1012B00084F8C80404F5996010BD00002DE9FF41D1
:1012C00000238DF80A3090F848351B4A8DF8083015
:1012D000012301928DF809303222C0238DF80B30A2
:1012E0008DF80C2001AB044600F54E7803CBC4F812
:1012F0003803C8F8041088F80820D4F84C6509258C
:101300008EB1336800211B6830469847478805F541
:101310004E73093F00F109013A46E01810F0F2FB64
:101320003D44B668ECE784F83A5340462D1284F801
:101330003B5304B0BDE8F0810902FFFF40F20233E5
:1013400030B5A0F808350B4D002300F20A521C46B8
:10135000595D02F8131002EB430101330B2B4C7063
:10136000F6D190F80835163380F8083500F5A160FD
:1013700030BD00BFB854020073B504460D46164692
:1013800008F0C6FC4FF480730093014633462A46AA
:10139000204602F0A3FF024B2360204602B070BD3E
:1013A000CC540200D0F84C356BB9C0F84C1590F80D
:1013B00048350B7190F848354A79134480F8483520
:1013C0000120704713469A68002AFBD19960EEE726
:1013D0001FB5044602F07CFF0146684602F01EF984
:1013E0004021684602F08AF9D4F84C4534B12368AC
:1013F0002046DB6969469847A468F7E7684602F02B
:1014000014F904B010BD10B50446FFF7E1FF204603
:10141000BDE8104002F0CCBE10B50D4C2378BFF3F0
:101420005B8FDB0712D4204605F00EFB70B148F24B
:101430005A0242F241310748FFF79EFF204605F06D
:1014400025FB054A0549034805F0EBFA014810BDA4
:10145000AC110020B0110020000200201111010089
:1014600010B5FFF7D9FF0368BDE810405B6F184760
:1014700010B5FFF7D1FF0368BDE810409B6F184718
:1014800010B5FFF7C9FF0368BDE81040DB6F1847D0
:1014900002F082BA02F044BA02F06EBA70477047A6
:1014A0007047436A93F87000704700000048704727
:1014B000C256020000487047AC5602002DE9F04FBA
:1014C000044697B04B260F463246002103A810F081
:1014D00017FC2579637B94F80EA094F80C90019387
:1014E000681CC0B2002F40F0958040F20923ADF88F
:1014F0000C304FF48173ADF8103080238DF8133029
:1015000032238DF81430082301228DF815300B2377
:101510008DF816308DF8212040F202238DF824201A
:1015200042F205418DF82A208DF82D208DF82F20CC
:1015300006224FF0240C4FF0090E0427ADF81830A6
:10154000ADF82610022305214FF010088DF8332046
:101550008DF836204FF0030B07228DF817508DF8C9
:101560001A308DF81DE08DF81F508DF822308DF85F
:1015700023308DF82B108DF82CC08DF831C08DF8EC
:1015800032308DF834108DF835C08DF80E608DF83E
:101590001E708DF829808DF82EB08DF830708DF882
:1015A00037508DF839208DF8492044F20202ADF809
:1015B0004C2040F207528DF838008DF84200ADF80B
:1015C000502040F602209DF804208DF83A101D347A
:1015D000ADF844008DF84A108DF852208DF8533044
:1015E00044F203054023324603A920468DF83BA070
:1015F000ADF83C508DF83F808DF840E08DF841709B
:101600008DF84B908DF8543010F07CFA204617B0CE
:10161000BDE8F08F0020FAE70A4B10B503600446DE
:10162000FFF7FAFE03F039FA04F5227002F000F930
:1016300004F1740002F0FCF804F1680002F0F8F81C
:10164000204610BD7056020010B50446FFF7E4FFB7
:10165000204640F29C4105F019FC204610BDFFF7E2
:101660000FBF000010B5034B0360044601F05EFF9E
:10167000204610BD9C55020010B50446FFF7F2FF4E
:101680002046282105F002FC204610BD10B5034B72
:101690000360044601F04AFF204610BD6C5502006D
:1016A00010B50446FFF7F2FF2046342105F0EEFBAB
:1016B000204610BD10B5034B0360044601F036FF11
:1016C000204610BD8455020010B50446FFF7F2FF16
:1016D0002046382105F0DAFB204610BD38B51D4BF9
:1016E0000D461968C0F80F1099889B794375044618
:1016F000A0F8131040220221284601F0F5FF4022F5
:1017000020730221284601F0F4FF40226073032178
:10171000284601F0E9FFA073284601F087FF20B9B1
:10172000B6220D490D4804F033FD04F17D0200237B
:10173000C4F8802204F2912284F8703084F87C305E
:10174000C4F8843284F89032C4F89424C4F89834ED
:1017500038BD00BFB8550200F455020054560200CF
:101760002DE9F34104460E461546FFF789FEF2883F
:1017700023799A4237D1002D35D17778012F2ED198
:10178000F378202B27D13289072A24D104F10F08BE
:1017900004F116052946404610F082F9D0B1D4F87C
:1017A0001630C4F80F30207CE17B638BA4F8133033
:1017B00001EB0021607CE57C237F009501EB00417B
:1017C0002568A07C637501EB0061237D627D2D6B34
:1017D0002046A8473D46F378212B08BF012528461F
:1017E00002B0BDE8F0810025F9E710B50446FFF727
:1017F00047FEFFF711FE217B02F0ECFF04F17D03B1
:10180000C4F880320023C4F8843284F87C3004F1B8
:10181000740001F0C2FF94F87C302BB92368204695
:101820009B6BBDE81040184710BD000070B5044622
:10183000FFF726FED4F898542DB14FF4F1720F49FA
:101840000F4804F0A5FC04F29123C4F89434FFF788
:10185000E3FD617B02F01CFF84F89052C4F8980409
:1018600004F5227001F099FF94F890322BB92368A7
:1018700020465B6BBDE87040184770BDF455020010
:10188000C455020010B4D0E9013401686210E407C5
:1018900001EB020048BF8A585DF8044B48BFD3589B
:1018A00018470000F0B5044687B002ADFFF7E8FD29
:1018B0000026FFF7B1FDA17B00950323402205968A
:1018C00002F090FC2846FFF7D1FAFFF7A5FD164B72
:1018D000217B164F00954022CDE903360223059760
:1018E000029402F07FFC2846FFF7C0FAFFF794FD50
:1018F0000F4B617B00954022CDE90336022305970B
:10190000029402F06FFC2846FFF7B0FAFFF784FD5F
:101910004FF40073D4F89424617B02F05BFE012045
:1019200084F8900207B0F0BDEB170100AC5502003F
:101930002D180100022310B54371002383600A4B68
:10194000044640F8683B01F01BFF04F1740001F00D
:1019500017FF04F5227001F013FFFFF75DFD21462C
:10196000FFF720FD204610BD7056020070B50446FA
:101970000D46FFF785FD84F87050002D3ED194F898
:101980007C3033B1FFF748FD217B02F0FBFC84F88B
:101990007C5004F17D0304F1740600253046C4F840
:1019A0008032C4F8845201F0F8FE304601F0EEFEB9
:1019B00028B91549154840F2491204F0E9FB94F89A
:1019C000903233B1FFF728FD217B02F0DBFC84F875
:1019D000905204F29123C4F8943404F52275002344
:1019E0002846C4F8983401F0D8FE284601F0CEFE0F
:1019F00020B940F2531204490548DEE704F16800BB
:101A0000BDE8704001F0C9BEF4550200D255020095
:101A1000E355020010B50446FFF732FD20460021D1
:101A2000BDE81040FFF7A2BF38B50D460446FFF7EA
:101A300027FD042D05D020460021BDE83840FFF7E2
:101A400095BF38BDF8B5154604460E461F46FFF74C
:101A500017FD04232B70F28823799A421DD17178E7
:101A600001291AD1F278212A08D0222A0BD0202A63
:101A70004FF0000013D12870163401E029700F34A4
:101A80003C600720F8BDB38813F0010308BF194676
:101A90002046FFF76BFF02232B700020F2E70323A1
:101AA0002B70EFE710B58AB00446FFF7D9FC684603
:101AB00001F030FD0A4B0093694604F16800099477
:101AC00001F083FE2046FFF7D3FC064B00211A6885
:101AD000684601F069FD6846FFF7C4FD0AB010BD15
:101AE0009C550200C055020070B58EB015460446E4
:101AF0000E46FFF7B5FC01A801F00CFD0E4B0C954E
:101B000001A9002504F174000193CDE90A468DF87E
:101B1000345001F05AFE2046FFF7AAFC074B294635
:101B20001A6801A801F040FD01A89DF83440FFF7B4
:101B3000ADFD20460EB070BD6C550200C0550200D0
:101B400010B50446FFF79CFC94F87C307BB9D4F8C0
:101B5000843263B1FFF760FCD4F88432217B04F156
:101B60007D0202F0D5FD10B1012384F87C3010BD58
:101B70002DE9F8431E460446894690469DF820709C
:101B8000FFF76EFC0023336094F87030E3B194F8F3
:101B90007C30CBB9D4F88452C5F50075454528BFD3
:101BA0004546B8F1000F05D02A464946D4F88002D0
:101BB0000FF0A8FFD4F884322B44C4F88432356087
:101BC00017B12046FFF7BCFF2046BDE8F843FFF7FA
:101BD0004FBCF0B50446406A90F8705085B00126BD
:101BE0002DB984F830503546284605B0F0BD04AB19
:101BF000002743F8047DD4E90A120096FFF7B8FFE6
:101C00000399E36AA26A5B1A0A44E362A26213B907
:101C100084F83060E8E7606AFFF792FF3D46E3E74B
:101C20002DE9F0431C4691B0904606468946FFF7E1
:101C300017FC002C08BF01AC4FF00005256002A87E
:101C40000CBF0127002701F065FC104B029302A98D
:101C500006F52270CDE90D84CDE90B698DF83C7055
:101C60008DF83D5001F0B1FD3046FFF701FC084B07
:101C700029461A6802A801F097FC02A89DF83D4089
:101C8000FFF718FD204611B0BDE8F083845502002F
:101C9000C055020010B5D0F89834044673B990F8D6
:101CA00090325BB9FFF7B8FB4FF4007304F2912256
:101CB000617B02F08FFC012384F8903210BD70B577
:101CC0001E4604460023336094F870300846EBB19A
:101CD00094F89032D3B9D4F89854D4F89414954227
:101CE00028BF15462A460FF00DFF3560D4F894340E
:101CF000D4F898242B44551BC4F89434C4F8985451
:101D000025B92046BDE87040FFF7C4BF70BD37B5A8
:101D10000446406A90F870502DB984F8355001257A
:101D2000284603B030BD02AB002243F8042DD4E9AD
:101D30000A12FFF7C4FF0199A26A0A44A262226B49
:101D400013680B441360E36A01995B1A94F834102A
:101D5000E36209B9126802B91BB9012384F835306E
:101D6000DEE7606AFFF796FF0025D9E76FF0150000
:101D7000704700290CBF6FF0180000207047012049
:101D800070476FF0150070476FF015007047112015
:101D9000704770477047704703685B6C1847A0F244
:101DA000B440F9E7704770477047704790F870008B
:101DB0007047A0F2B44090F8700070477047036815
:101DC0001847000038B500F001FB094D044695F8AE
:101DD00070301BB1012000F00BFBF8E700F0F6FAC1
:101DE000001BC728F6D9BDE83840FFF71FB800BF71
:101DF000001700204FF0FF3102F04DBF07B502ABD6
:101E0000012243F8041D1946FFF76EFE18B1019830
:101E100003B05DF804FB4FF0FF30F9E7A0F29C40FF
:101E2000FFF7ECBF08B590F8703013B1FFF75CFE18
:101E300008BD1846FCE7A0F2B440F3E707B502A9D5
:101E4000002301F8013D0122FFF7EAFE20B19DF8D1
:101E5000070003B05DF804FB4FF0FF30F9E7A0F294
:101E60009C40FFF7EBBF2DE9F04104460D461646B6
:101E70001F46DDF81880FFF703FBD4F888463CB115
:101E800043463A4631462846A446BDE8F0416047FD
:101E9000BDE8F08170B50646FFF7F2FA06F28C64F1
:101EA0000025D6F8CC36AB4208D92046103454F879
:101EB000043C1BB11B6898470135F2E770BD90F8F0
:101EC000703013B10368DB6B184718467047A0F2F7
:101ED000B440F4E7B0F5966F10B511D1042109486C
:101EE00002F051FF044658B1074B0360074903F065
:101EF000EAF8224606490348BDE8104003F001B85D
:101F000010BD00BFD01D0020C51D0100BD1D01007A
:101F1000BF1D010010B4D0E9013401686210E4076C
:101F200001EB020048BF8A585DF8044B48BFD35804
:101F3000184710B4D0E9013401686210E40701EBDE
:101F4000020048BF8A585DF8044B48BFD358184771
:101F5000134B03F1740270B50360C0F89C2403F1C5
:101F6000D402E4330446C0F8A024C0F8B43400F22C
:101F70008C6600F2CC65AE4204D0103D2846FEF7D8
:101F800075FFF8E704F2CC5007F0CAFC04F29C405D
:101F900003F0A0FD2046FFF73FFB204670BD00BFC9
:101FA000EC560200A0F29C40FFF7D2BFA0F594606F
:101FB000FFF7CEBF10B50446FFF7CAFF20464FF427
:101FC000DA6104F063FF204610BDA0F59460FFF7CE
:101FD000F1BFA0F29C40FFF7EDBF00007FB50446C3
:101FE000FFF73EFA1F4BC4F888362046FFF740FA49
:101FF0001D4B03931D4B0193204600230094029335
:10200000FFF72EFAD4F8CC56032D13D804EB05169F
:102010006B1C06F28C66C4F8CC363046FEF726FF01
:1020200004EB0515039BC5F898361BB15B68694640
:10203000304698472046FFF71BFA6846FEF716FF22
:102040000B4B03930B4B00930B4B019369460023FF
:1020500004F2CC50029307F0DDFB6846FEF706FF62
:1020600004B070BDD51E0100D856020075210100D4
:10207000CC560200D01D0020F51D0100A0F2B44096
:10208000FFF7ACBFF7B504461F4615460E4607F0EE
:102090003FFEBDF8203000932A463B4601462046CD
:1020A000FFF748FC002104F29C4003F0E9FC4FF4E8
:1020B0007A73C4F8BC34234B236003F17402002507
:1020C000C4F89C2403F1D402E433C4F8A024C4F877
:1020D000B4344FF480722946C4F8B85404F2C440B2
:1020E0000FF00EFE184BC4F8CC352946C4F8C45581
:1020F000C4F8DC55C4F8C85504F20C6005F0E2F8E9
:1021000004F2CC5704F5C46005F07AF800952B462C
:102110004FF480521821384607F070FBC4F89856E7
:10212000C4F8A856C4F8B856C4F8C856C4F8CC5673
:10213000C4F8885616B12046FFF7B4FC204603B019
:10214000F0BD00BFEC560200586C020038B50546E1
:10215000FFF786F995F8903253B9D5F89844FF2CDB
:1021600028BFFF24E4B22846FFF782F9204638BD95
:102170000024F8E710B50446D4F8C425D4F8C835CF
:102180009A42ADBFD4F8C435D4F8C835D4F8C425C4
:10219000D4F8C825ABBFC3F1FF039B1A9B1803F10A
:1021A000FF33BBB12046FFF7D1FF98B1236820462B
:1021B0001B6C9847D4F8C435D4F8C8250133DBB27A
:1021C0009342D9D0D4F8C425224482F8C404C4F878
:1021D000C435D1E710BD10B50446FFF7CBFFD4F8E6
:1021E000C825D4F8C4359A421BBFD4F8C835E418C2
:1021F0004FF0FF3094F8C40410BDA0F2B440EAE7F9
:1022000010B50446FFF7B6FFD4F8C405D4F8C835B6
:10221000C01A48BF00F5807010BDA0F2B440EFE7CF
:1022200010B50446FFF7A6FFD4F8C825D4F8C43586
:102230009A421BBFD4F8C8351B194FF0FF3093F8F2
:10224000C4041FBFD4F8C8350133DBB2C4F8C835A5
:1022500010BDA0F2B440E3E737B50F4C0F4D00229C
:102260006821204602F0FEFC2A460D4920460D4C0E
:1022700004F0D7FB012300934FF4F85242F212030B
:1022800000212046FFF7FEFE07492A46204603B0FC
:10229000BDE8304004F0C5BBD01D00200002002086
:1022A000834C010000170020511F010008B50EF0FB
:1022B00061FA2DE9F84306460D46071D00F10709AE
:1022C000002417F8011B0A22284600F05BF82E2193
:1022D0008046284600F029F84F4540440444F0D198
:1022E0000A22F179284600F04DF82044BDE8F88331
:1022F000024B034A1A6000225A6070472C1E0020CD
:102300000458020070B5044608460D4610F0D8F88F
:1023100023680246294620465B68BDE8704018479E
:1023200009B1FFF7EFBF0846704703681B681847FD
:1023300070B58AB00D460AA9002301F8043D012AB0
:1023400098BF0A22B5FBF2F402FB1456F3B2092E31
:1023500094BF30333733DBB2254601F8013D002C02
:10236000F0D1FFF7DDFF0AB070BD10B42AB90368E1
:102370005DF8044B1B68C9B21847D2B25DF8044B34
:10238000FFF7D6BFFFF7F1BF10B500F033F8FEF747
:10239000E5FCFFF741F8FFF736F84FF4E131064866
:1023A000064CFFF71BFEFDF705FFFDF72DFF002C88
:1023B000FBD0AFF30080F8E700170020000000001A
:1023C00010B5044600F027FF204610BD07B50749A9
:1023D000684600F05DFF4FF47A720023DDE90001EA
:1023E0000DF072F803B05DF804FB00BF381E00204A
:1023F00007F09CB9014800F018BF00BF381E00204C
:1024000010B5054C204600F080FF2046034A0449E1
:10241000BDE8104004F005BB381E0020000200207B
:10242000C123010008B590F900305A1C04D12022C4
:102430000E490F4803F0ACFE012259B11F2B86BF95
:1024400003F01F030B494FF0A04102FA03F3C1F858
:10245000083508BD1F2B86BF03F01F0305494FF049
:10246000A04102FA03F3C1F80C35F2E7C8530200A9
:102470004F540200000300502DE9F0411B4D0601AE
:10248000AB198046DC680F469CB9FEF764FC8045BA
:102490004FF0010034BF15F906804FF0FF3804F00B
:1024A000CFFC3544002304460370414602F007FF89
:1024B000EC60012F10D006D3022F12D0204600F07E
:1024C000EEFB012103E0204600F0E9FB002120465D
:1024D000BDE8F04100F0F0BB2046BDE8F04100F05F
:1024E000D1BB204600F0DBFB0321F0E70402002013
:1024F0002DE9F34107468846FEF72DFC874221D29D
:10250000124C3E01A319DD68ADB9FEF724FC8742E9
:102510004FF0010034BFA7574FF0FF3704F090FC95
:1025200034440023054603700122CDF8008039466B
:1025300002F0CFFEE5604146284602B0BDE8F0411A
:10254000FFF770BF02B0BDE8F08100BF04020020B9
:10255000CB68C3600BB15B6818477047C36810B5A0
:102560002BB9054905484FF4FD7203F011FEBDE893
:1025700010401B68184700BF085802002658020088
:10258000F8B50546064655F8044B8CB90D4F38682A
:1025900018B14FF0FF3106F0F5F9346824B9284638
:1025A00004F02EFE2C463560386808B106F002FAB9
:1025B000AC4204D0044905488B2203F0E9FD2046D3
:1025C000F8BD00BFF8A500203258020054580200A0
:1025D000036801221B6900211847036800221B6958
:1025E0001146184780F84C130020704780F85012AD
:1025F0000020704790F84C03704790F850027047E5
:1026000000207047012070476FF01C00704737B5FD
:1026100000F5467504462846019104F0F9FD01993C
:10262000204600F066FD284604F010FE002003B0AE
:1026300030BDA0F1FC00FFF7EABF37B500F54675E5
:1026400004462846019104F0E3FD0199204600F07C
:1026500099FD284604F0FAFD002003B030BDA0F13A
:10266000FC00FFF7EABF10B4D0E901320168541052
:1026700001EB6200D20748BF0A595DF8044B48BF1E
:10268000D358184700207047012070476FF01C0096
:10269000704700000C4B10B5036048330446C0F887
:1026A000FC30D0F8540310B103685B68984704F518
:1026B0004F70FEF7DBFB04F5467004F0E1FD2046A9
:1026C00000F0CAFC204610BD8C580200A0F1FC00AE
:1026D000FFF7E0BF10B50446FFF7DCFF20464FF4DC
:1026E000567104F0D3FB204610BDA0F1FC00FFF7AB
:1026F000F1BFD0F8540308B520B100F0EBFA003870
:1027000018BF012008BD30B5002585B02A466946AE
:102710000446039500F055FC6846FEF7A7FB84F8D5
:102720004E5305B030BD30B585B000250122694655
:102730000446039500F045FC6846FEF797FB84F8D5
:102740004D5305B030BD10B5044603F021FED4E969
:1027500040239A420ABF94F80841002484F00104FF
:1027600003F02CFE204610BD38B500F54675044632
:10277000284604F04DFD04F503742046FFF7E3FFFF
:1027800048B9284604F062FD012004F095FC284673
:1027900004F03EFDF1E7284604F058FD002038BD66
:1027A000A0F1FC00FFF7E0BF38B5054600F58070EA
:1027B000FFF7C9FF80F001042846E4B2FFF799FF54
:1027C00018B144F40054204638BD03F0E1FD95F8FB
:1027D000145303F0F3FD002DF5D144F01004F2E79B
:1027E000A0F1FC00FFF7E0BF70B504460D4603F012
:1027F000CFFD03F0CDFD94F8086103F0DFFD56B185
:10280000D4F80431FF2B03F101020ABF0023C4F8FE
:102810000421C4F80431D4F80021531CC4F8003159
:102820002978A154B3F5807F04BF0023C4F8003198
:10283000D4E940239A4204BF012384F80831BDE85B
:10284000704003F0BBBD38B504460D4603F0A0FD53
:102850002046FFF778FFB0B9D4F804315A1CC4F809
:102860000421E35C2B70D4F80431B3F5807F4FF082
:10287000000308BFC4F8040184F80831012403F000
:102880009DFD204638BD0024F9E7000010B586B054
:102890000446684680E80C0006A800E90C00039195
:1028A00010E90700034BE36084E80700204606B008
:1028B00010BD00BF7858020030B587B000250B4B23
:1028C000009304462B460146084A019502A8FFF7EB
:1028D000DDFF2A4602A9204600F073FB02A8FEF79E
:1028E000C5FA012384F84E3307B030BDE329010057
:1028F00038B5044600F0E8FA114B002503F1080250
:1029000050332260C4F8FC30C4E98055C4E9C35593
:1029100084F8085284F8145304F5467004F070FCEF
:10292000084BC4F84C3301232046C4F8485384F8BC
:102930005033C4F85453FFF7BFFF204638BD00BFE3
:10294000845802000100000110B586B00B4B0093C3
:10295000044600230146094A019302A8FFF796FFA7
:10296000012202A9204600F02CFB02A8FEF77EFA05
:10297000012384F84D3306B010BD00BF012B0100C8
:1029800070B504460D4604F54F7603F001FDAE42E6
:102990000AD03046FEF76AFAEB68C4F848331BB138
:1029A0005B68294630469847D4F8483343B147F628
:1029B000FF712046FFF7F8FE10B13046FFF7CEFD5D
:1029C000BDE8704003F0FABCA0F1FC00FFF7D8BFEF
:1029D00008B5D0F848331BB100F54F70FFF7BEFDC6
:1029E00008BDF7B500F5807504462846FFF7ABFE35
:1029F000064603F0CDFC94F8087203F0DFFC77B9CB
:102A0000204600F0BCFA50B1204600F05FFB0DF10B
:102A100007018DF807002846FFF7E6FEE9E794F87E
:102A20004E334BB103F0B4FC94F8087203F0C6FCCB
:102A300017B12046FFF767FE4EB12846FFF783FE29
:102A400028B9204603B0BDE8F040FFF7C1BF03B08E
:102A5000F0BD2DE9F743064689461546002A49D0C0
:102A600000F54677384604F0D3FB06F580784046FB
:102A7000FFF769FE044698B196F84C33384633B9EF
:102A800004F0E4FB6FF00A0003B0BDE8F08304F04B
:102A9000DDFB012004F010FB384604F0B9FBE6E74B
:102AA00009EB040140460191FFF74DFE30B9019951
:102AB00040460134FFF7C7FEA542F1D103F068FCA0
:102AC00096F850337BB196F84E3363B93046FFF732
:102AD00088FF03F05DFC96F8085203F06FFC15B90F
:102AE0003046FFF7E9FE03F069FC384604F0AEFB20
:102AF0002046C9E71046C7E7A0F1FC00FFF7A9BFD1
:102B000073B5044603F044FC94F8145303F056FCE8
:102B100004F50376204600F043FA58B10DF10701A1
:102B20003046FFF790FE28B19DF80710204600F0D0
:102B3000D0FAEFE794F84D333BB104F50370FFF79B
:102B400002FE10B12046FFF7EEFD6DB103F020FC50
:102B500094F8145303F032FC35B92046FFF7C9FD51
:102B600010B92046FFF734FF02B070BDF8B5054636
:102B70000C46164600F503773846FFF7E4FD40B1F2
:102B8000A719BC4209D014F8011B284600F0A1FA8D
:102B9000F7E72846FFF7B4FFEEE73046F8BD2DE92A
:102BA000F84F05460F461646002A65D003F0EDFBA8
:102BB000044630B1324639462846BDE8F84FFFF7A3
:102BC000D5BF05F54679484604F022FB05F5037AA2
:102BD00003F0DEFB95F8148303F0F0FBB8F1000F6F
:102BE00014D1A7EB0408A64208EB040724D903F08C
:102BF000CFFB95F814B303F0E1FBBBF1000F1BD141
:102C000039465046FFF7F0FD0134ECE795F84C33B8
:102C100043B3484604F01AFB012004F04DFA48463D
:102C200004F0F6FA03F0B4FB95F8148303F0C6FB46
:102C3000B8F1000FEDD1D4E703F0AAFB95F84F33BC
:102C400063B195F84D334BB92846FFF759FF50460D
:102C5000FFF779FD10B92846FFF776FE03F0AEFBCB
:102C6000A642B5D8484604F0F1FA002C14BF20461D
:102C70006FF00A00BDE8F88F1046FBE7A0F1FC00FA
:102C8000FFF78DBF07B5019003F082FB019801218A
:102C900007F014FD03B05DF804EB03F08FBB07B53C
:102CA000019003F075FB0198002107F007FD03B0C8
:102CB0005DF804EB03F082BB07B5CDE9001003F02B
:102CC00067FBDDE9001007F0D7FC03B05DF804EB0B
:102CD00003F074BB043007F0A1BC7047416830B406
:102CE000034671B1D0E9032000F0010402B944B1F8
:102CF000451001EB60000CB149598A58996830BC05
:102D0000104730BC7047000070B500F14C0690F9D8
:102D1000DF2090F9DE100446304607F0F3FFD4E9D7
:102D200039530DB9DA070ED55A1004EB6300DB07EF
:102D300048BFA35894F8EC1048BF5D5994F9ED20B2
:102D400094F9EE30A847D4F8D810304608F0F0F8DF
:102D5000224630460249BDE8704008F0C1B900BFC4
:102D6000E130010070B5044600F14C05D0F8E010E8
:102D7000284602F025FDD4F8F020A2B1D4F8E430C2
:102D80001BB9D4F8E830D8070DD5D4F8F810D4F82A
:102D9000F4304E1004EB6100C90744BFA159CB5871
:102DA00094F8EC109847D4F8D810284608F0C0F8EA
:102DB000224628460249BDE8704008F091B900BF9C
:102DC000E13001002DE9F0411F46D0F8E030044623
:102DD0000D4616462BB11749174840F2271203F04B
:102DE000D7F9164AC0E9392303681B68984784F865
:102DF000EC5084F8ED6084F8EE70032D0BD8DFE81A
:102E000005F0150210154FF0FF333246012104F191
:102E10004C0008F03FF9236820465B68BDE8F041AC
:102E2000184733464FF0FF320221F0E73B46324667
:102E30002946ECE71C59020044590200C52D010047
:102E40002DE9F04198461D4B03601D4B4360002562
:102E50001C4B85600446C0E90555C0E907550F467F
:102E60001646C360858445634564A0F848506C22CB
:102E7000294600614C300EF043FF40F20113A4F8E4
:102E8000DC304FF47F43A4F8EC30FF232046C4E944
:102E90003558C4E93855C4E93C55C4F8C45084F8E1
:102EA000DE7084F8DF60C4F8E85084F8EE30C4F8CF
:102EB000F850FFF729FF2046BDE8F0816459020071
:102EC000092D0100DD2C0100F8B51E4B03601E4BDF
:102ED000436000251D4B856004460E46C0E905553C
:102EE000C0E907551746C360858445634564A0F86B
:102EF00048506C22294600614C300EF001FFC4E9B5
:102F00003557C4F8C45040F20113A4F8DC303379CB
:102F100084F8DE30337B84F8DF304FF47F43A4F84D
:102F2000EC30FF232046C4E93865C4E93C55C4F8B9
:102F3000E85084F8EE30C4F8F850FFF713FF20464D
:102F4000F8BD00BF64590200652D0100DD2C0100B1
:102F50007FB50546044655F84C6B0193CDE9022137
:102F60003668B047DDE901322846039908F05AF87F
:102F700023685B68204604B0BDE87040184738B548
:102F80000546044655F84C3B1B689847284608F010
:102F90005BF9236805465B6820469847284638BD9C
:102FA00038B50546044655F84C3B1B6898472846FB
:102FB00008F06AF9236805465B682046984728466A
:102FC00038BD03682DE9F34105461B6816460F46D8
:102FD000984795F8DC30340103B1B6B195F8DD308F
:102FE0000BB1012E11D0B8342819B84206D0019087
:102FF000FDF73CFF01983946FFF7AAFA2B685B689A
:10300000284602B0BDE8F0411847B83403F0C0F9D3
:103010002C44FA68E36805F14C089AB10BB903F047
:1030200079FCA74206D02046FDF720FF394620460E
:10303000FFF78EFA01223146404608F061F803F0AE
:10304000BDF9DBE70BB103F07BFC2046FDF70EFF7B
:103050000022E260EFE7000030B5164B036085B058
:1030600000252A46694604460395FFF7AAFF6846ED
:10307000FDF7FCFE0122694620460395FFF7A1FFFC
:103080006846FDF7F3FE04F1C800FDF7EFFE04F11A
:10309000B800FDF7EBFE04F13800FDF7E7FE04F1A0
:1030A0002800FDF7E3FE206A08B102F08FFB2046FE
:1030B00005B030BD6459020010B50446FFF7CCFFDF
:1030C0002046FC2103F0E2FE204610BD4C3008F003
:1030D00043B810B54C300C4608F080F8204610BDBF
:1030E00000EB0110B83008B5C3680BB1FFF736FA32
:1030F00008BD036870B504461B680D46984794F8F0
:10310000DC30AB422BD065B194F8DD304BB9A2680E
:103110006368511004EB6200D20744BF6258D35871
:10312000984703F035F905B3D4F8C4305BB104F126
:10313000B800FFF713FA03F0EDFB0122002104F1C0
:103140004C0007F0DDFF03F039F984F8DC5035B9A5
:1031500094F8DD301BB904F14C0007F0B3FE23688E
:1031600020465B68BDE8704018472A46294604F1AE
:103170004C0007F0C5FFD4F8C430002BE3D003F0B7
:10318000DFFBE0E7036870B504461B680D4698470F
:1031900094F8DD30AB422BD065B194F8DC304BB9FC
:1031A000A2686368511004EB6200D20744BF625802
:1031B000D358984703F0ECF805B3D4F8D4305BB19A
:1031C00004F1C800FFF7CAF903F0A4FB012211467D
:1031D00004F14C0007F094FF03F0F0F884F8DD50A0
:1031E00035B994F8DC301BB904F14C0007F06AFEE5
:1031F000236820465B68BDE8704018472A460121D5
:1032000004F14C0007F07CFFD4F8D430002BE3D05D
:1032100003F096FBE0E7437D10B504461BB1037D48
:103220000BB103F08DFB204610BD13B5044601A879
:1032300002F0D4FA637D53B9237D0BB103F06AFB2E
:10324000206902F084FAC4E900010123637501A832
:1032500002F0CCFA02B010BD37B504460D4601A805
:1032600002F0BCFA00230022C4E900236B7D4BB1BD
:10327000286902F06CFAD5E90032C01A61EB02014C
:10328000C4E9000101A802F0B1FA204603B030BD44
:1032900030B585B004460D4603A802F09FFA2946D2
:1032A0006846FFF7D9FFD5E90210009B019A5B1829
:1032B00042EB0002C4E9003203A802F097FA20466C
:1032C00005B030BD13B5044601A802F087FA2069A5
:1032D00002F03DFA00220023C4E90001C4E9022300
:1032E00001A802F083FA02B010BDD0B50023002679
:1032F0000027C0E90067C0E9026704460161027562
:103300004375FFF7DFFF2046D0BD10B5044601F03E
:10331000FDFF002201462046FFF7E7FF204610BDD3
:1033200003681B681847000010B50446074B23606C
:1033300000220023C4E9022300230846A161C4E956
:103340000433034902F07CF9204610BD7C59020089
:103350002133010007B5009000F10801806902F0F7
:10336000AEF903B05DF804FB00F10801806902F0DA
:10337000D3B9002070476FF01C0070476FF01C003D
:1033800070476FF0150070476FF01500704701200F
:10339000704701207047002070470020704770B5CB
:1033A00011F0010405468EB204D0FFF7E8FD041EBB
:1033B00018BF0124F30605D52846FFF7F1FD08B133
:1033C00044F01004204670BDA0F1FC00FFF7E7BFF9
:1033D00010B5034B03600446FFF73EFE204610BDC8
:1033E00088590200A0F1FC00F2E700BF10B50446C6
:1033F000FFF7EEFF20464FF4807103F047FD2046B3
:1034000010BDA0F1FC00F1E72DE9F04106460D46A4
:103410001746C2B102F0B9FF80F0010313F0FF04B8
:1034200003D0336830461B68984705EB070815F84A
:10343000011B3046FFF74DFEA845F8D11CB133689B
:1034400030465B6898473846BDE8F081A0F1FC0043
:10345000FFF7DABF38B504460D4662B103681B6852
:1034600098472046FFF732FE2870236820465B68A5
:103470009847012038BD1046FCE7A0F1FC00FFF79B
:10348000E9BF000010B50446FFF7DAFC044B03F176
:1034900008023C332260C4F8FC30204610BD00BF57
:1034A0008059020030B5056885B00446CDE9022197
:1034B00001932D68A847DDE9013220460399FFF703
:1034C00081FC23685B68204605B0BDE830401847A2
:1034D00030B5044685B004F1080502F059FF2946CD
:1034E0006846FFF735F82846FDF7C0FCE069002381
:1034F000C4E9053308B103F00BFF02F05FFF039B43
:1035000013B11B68684698476846FDF7AFFC05B0E5
:1035100030BD0000002204494260C0E9052201607C
:10352000C2610284704700BF545A0200074B10B5B5
:1035300003608369044623B105490648262202F048
:1035400027FE0830FDF792FC204610BD545A0200B9
:10355000045A02002D5A020070B504460E4602F0CD
:1035600017FFA56965B104F10800FDF77FFC002392
:103570000122636184F82020E36184F82160A36163
:1035800002F01CFF2DB121462846BDE8704000F036
:103590002EB970BD08B103F03BBE02F0F9BE08B110
:1035A00003F054BE02F00ABF2DE9F041044686B094
:1035B0000E46174602F0ECFEA56902F0FFFE35B399
:1035C00001AD0021284603F07DFE02F0E1FED4E9C2
:1035D000068323B10F491048392202F0D9FDE56175
:1035E00002F0ECFEB8F1000F0ED03946284603F089
:1035F00071FE48B93046FFF7CDFF20460121FFF7A5
:10360000ABFF3046FFF7CBFF284603F084FE06B041
:10361000BDE8F081045A02003B5A02000022C0E9D2
:103620000122012201600273704770470346007B4C
:1036300030B1D3E90020136898428CBF00200120EC
:1036400070472DE9F0410468012606FA01F10023D4
:10365000271D82EA060E17F813400C4204D004F02E
:1036600030043AB1102C07D10233202BF3D14FF0A4
:10367000FF300DE0002CF7D0D0F808C042EA030577
:1036800006FA05F818EA0C0FEED1202C02D02846D5
:10369000BDE8F0814EEA030406FA04F414EA0C0FC4
:1036A000F5D0E1E770B50D4611462A4604461E46A0
:1036B000FFF7C7FF002802DA0020207370BD2568DD
:1036C0006368420805EB8205E98819446B7906FBBB
:1036D00003136360012303FA00F1A36842EAC010F8
:1036E0000B43A360C0B2E9E713460A460121FFF786
:1036F000D9BF13460A460021FFF7D4BF13B50A46C7
:10370000019100210446FFF7EFFF019A00212046B6
:1037100002B0BDE81040FFF7ECBF0022C0E9002274
:10372000704770470068704700230B60436813B907
:103730000160416070471960FBE703682BB11A68AC
:1037400002B94260026000221A601846704710B544
:103750000468002223468B4203D083B11A461B68BB
:10376000F9E70AB10B6813608C4204BF0B68036071
:1037700043688B424FF0000308BF42600B6010BDEE
:1037800010B50446FFF7C9FF204610BD08B5FFF786
:10379000C9FFB0FA80F0400908BD70B5054628465B
:1037A000FFF7C0FF044678B150F8043C061F9B6841
:1037B0003046984740B12846FFF7BFFF54F8043C15
:1037C0003046DB689847EAE770BD70B504460D46A1
:1037D000FFF7A8FFAC610646291D2046FFF7A4FFAE
:1037E00026B92046BDE87040FFF7D7BF70BD70B561
:1037F00005460C46FFF796FF064604B10434214601
:103800002846FFF7A4FFA64204D12846BDE8704031
:10381000FFF7C3BF70BD10B504462046FFF782FF17
:1038200028B150F8043C0438DB689847F5E710BD30
:1038300010B50446FFF7EFFF2046FFF772FF204662
:1038400010BD7047704703689B6D184770B586B010
:103850000023CDF806308DF80A3003898188C288AC
:103860008DF810301B0A12248DF811300323022525
:1038700090F820638DF804408DF80C100124090A9B
:103880008DF80E208DF81430120A00F10A038DF81D
:1038900005408DF807508DF80B608DF812408DF8BB
:1038A00013508DF815408DF80D108DF80F2001ACD8
:1038B00005AE1D46224603CAB2421860596014463E
:1038C00003F10803F6D112881A80284606B070BDAD
:1038D000004870473C5D020000487047745D02007C
:1038E00000487047405D020000487047865D020056
:1038F000004870476C5D020000487047565D02004A
:10390000036810B504465B6F9847D4F8EC0203686F
:103910001B6F9847236820469B6FBDE810401847EF
:1039200038B5D0F83433012B044610D10025D4E942
:10393000C93000F0010203B94AB14110C4E9C955C8
:1039400004EB60000AB16258D3589847EFE7D4F807
:1039500034332BB90649074840F2C66202F018FC1E
:10396000013BC4F83433BDE8384002F027BD00BF46
:10397000645A02008F5A020008B5D0F834332BB9CC
:103980000349044840F2CD6202F002FC08BD00BFCA
:10399000645A02008F5A020010B5044602F0F8FC87
:1039A000D4F834330133C4F834332BB90349044811
:1039B0004FF4D76202F0ECFB10BD00BF645A020066
:1039C0008F5A0200036873B50446DB6F9847B4F85A
:1039D000F8120B0A022B25D0032B56D0012B04D151
:1039E000236820461B6B984708B9002018E023681D
:1039F00020461B6B98470678122EF6D12368204686
:103A00001B6B98474578012DEFD12368C4F80463F8
:103A10001B6B2046984784F80853C4F800032846D7
:103A200002B070BD2368C9B25B6B01912046984714
:103A30000028DAD0236801995B6B20469847037809
:103A40000199092BD1D1236820465B6B98474378B5
:103A50000199022BC9D1236820465B6B98472368E4
:103A600085785B6B019920469847C378019945EAB0
:103A700003252368C4F804535B6B20469847C4F8B9
:103A80000003012084F80803CAE7C9B20529ACD8AD
:103A9000DFE801F0030F19232D37236820469B6BC5
:103AA00098470378C4F8043323689B6B20469847F3
:103AB000E5E723682046DB6B98470378C4F80433B6
:103AC0002368DB6BF2E7236820461B6C984703787A
:103AD000C4F8043323681B6CE8E7236820465B6C5A
:103AE00098470378C4F8043323685B6CDEE72368E7
:103AF00020469B6C98470378C4F8043323689B6C7A
:103B0000D4E723682046DB6C98470378C4F8043375
:103B10002368DB6CCAE70B78DB0913700B78C3F3FF
:103B2000411353700B7803F01F0393704B78D370DD
:103B30004B8893808B88D380CB881381704700009B
:103B4000036870B504465B6F0D46984794F80C33D4
:103B5000022B05D009490A4840F23D1202F018FB39
:103B6000084BC4F824330023C4F82833236884F8AE
:103B7000105320469B6FBDE870401847645A0200FE
:103B80009B5A02007540010038B503680446DB6F9C
:103B9000984794F8083313B10025284638BDD4F867
:103BA000EC0203685B6C9847D4F804239042F3D886
:103BB000D4F80013121A0144C4F80013C4F8042303
:103BC000A2B994F80A53022384F80C3345B1236850
:103BD00084F80A239B6E04F53D7120469847DCE784
:103BE00001212046FFF7ACFF0125D6E7D4F8EC020F
:103BF000D4F820430368A2421B6C28BF2246984792
:103C0000F2E70000036813B50446DB6F984794F8A9
:103C10001C33012B06D800230F4900931A460F4886
:103C200002F044FD94F80C3323B100230C490093B7
:103C30001A46F4E794F80B33032B0BD02046FFF71A
:103C4000A3FF38B9D4F8EC020368DB6C02B0BDE81E
:103C50001040184702B010BDC65A02000E01158070
:103C6000EE5A020038B503680446DB6F984794F8B3
:103C70000833012B3BD1D4F8045335B994F80933F8
:103C80000BB901252CE084F80953D4F82023D4F88B
:103C9000EC02D4F800130368954228BF15462A4663
:103CA0009B6C9847D4F80033D4F804232B44551B5D
:103CB000C4F80033C4F80453002DE2D194F809236A
:103CC000002ADED194F80A53022384F80C334DB154
:103CD000236884F80A239B6E04F53D7120469847BB
:103CE000284638BD01212046FFF72AFFC9E70025F5
:103CF000F6E70000036813B50446DB6F984794F8B5
:103D00001C33012B06D800230B490C4800931A469C
:103D100002F0CCFC94F80B33032B0BD02046FFF7BA
:103D2000A1FF38B9D4F8EC020368DB6C02B0BDE83F
:103D30001040184702B010BDC65A02000E0115808F
:103D4000036870B504465B6F0D46984794F80C33D2
:103D5000032B05D009490A484FF4C37202F018FA40
:103D6000084BC4F824330023C4F82833236884F8AC
:103D7000105320469B6FBDE870401847645A0200FC
:103D8000385B0200334B010010B503680446DB6F5B
:103D90009847012004F21D33C4F80033C4F804032B
:103DA00084F8080310BD036810B50446DB6F98471C
:103DB00094F81C33042B01BFB4F82E33A4F8FA3264
:103DC000012004F54C7303BFC4F80033C4F80403A6
:103DD00084F80803002010BD036810B5DB6F0446AB
:103DE0009847042384F80C33236894F8F8221B6F57
:103DF000B4F8FA1220469847012010BD036870B548
:103E000004465B6F0D46984794F80C33042B05D09D
:103E100009490A484FF4EB7202F0BAF9084BC4F8AA
:103E200024330023C4F82833236884F81053204631
:103E30009B6FBDE870401847645A0200645B020043
:103E400005410100036810B50446DB6F984794F8FC
:103E50001C33042B02D0B4F8FA328BBB94F8F63240
:103E6000012B0FD0022B10D053BB164B01221A800E
:103E7000144BC4F8003301200223C4F8043384F83F
:103E8000080310BD0F4B0022F1E7B4F8FA2222F02C
:103E90008F03ABB912F00F0F0A4902D100230B8038
:103EA000E6E7530003F01E0343EAD213023B182255
:103EB00002FB034393F830309B07EFD50123EEE775
:103EC0000020DEE7501E002010B50368044690B0C5
:103ED000DB6F9847D4F8EC02D4F8202303686946D6
:103EE000DB6B984704F53D7269462046FFF713FEE9
:103EF0000023C4F80833C4E9C033012384F80C3329
:103F0000236811465B6E984710B010BD036813B567
:103F10000446DB6F984794F81C33012B06D8002326
:103F20000A490B4800931A4602F0C0FB94F80C2390
:103F3000012384F82C332AB9204602B0BDE8104092
:103F4000FFF7C2BF84F82D3302B010BDC65A02007D
:103F50000E0115802DE9F0411D46036804465B6F94
:103F60000F461646984794F80C33012B05D00B49A1
:103F70000B4840F2BA2202F00BF90A4BC4F8243382
:103F80000023C4F82833236884F81073C4E9C56596
:103F900020469B6FBDE8F041184700BF645A0200FD
:103FA0008C5B0200A7490100036870B50446DB6F13
:103FB0009847B4F8FC2292B394F8F41294F80833BA
:103FC000012925D1012B06D0D4F8EC020368DB6C63
:103FD000BDE870401847D4F80433934201D9C4F8BF
:103FE00004230129D4F8043326D19A4208D9D4F8FD
:103FF0002023B3FBF2F002FB10330BB984F8091352
:10400000022384F80B332046BDE87040FFF72ABE38
:10401000002BD9D1D4F804339342E2D0D4E7D4F8BA
:10402000EC02D4F804230368002AD0D1032184F8D9
:104030000B139B6C11460EE0D4F8EC0201220168D0
:1040400084F80B23D4F820230D6CD4F800139A4283
:1040500028BF1A462B46BDE87040184710B50368C4
:104060000446DB6F9847002384F82D33032384F83C
:104070000B3310BD036810B5DB6F04469847002270
:1040800084F80C2394F82D2394F8103322B12046A1
:10409000BDE81040FFF7E2BF33B9D4F8EC02036883
:1040A000BDE81040DB6C184794F80B33012B0AD1A4
:1040B000D4F8EC02032384F80B3303689B6CBDE84F
:1040C000104011461847022B07D1D4F8EC02032305
:1040D00084F80B3303681B6CF1E710BD036810B55F
:1040E000DB6F04469847002384F82C3394F80C3394
:1040F00023B92046BDE81040FFF7B0BF012384F884
:104100002D3310BD036810B5DB6F044698470022BD
:1041100084F80C2394F82D2394F8103322B1204610
:10412000BDE81040FFF79ABF63B1B4F8FA32A4F8C3
:104130002E33B4F8F83284F830332046BDE810400E
:10414000FFF732BFD4F8EC020368BDE81040DB6C27
:104150001847036810B504465B6F984794F8F0322F
:1041600083B9D4F8EC02036821469B689847D4F8D9
:10417000EC02036840219B6B98470123C4F820039D
:1041800084F8F032236820469B6FBDE81040184742
:1041900038B5036804465B6F984794F81C5323684E
:1041A00020469B6FEDB298472B1F5842584138BDAF
:1041B000036810B55B6F044698472046FFF7C9FFB8
:1041C00094F8F1323BB9D4F8EC0203685B69984784
:1041D000012384F8F132236820469B6FBDE810402C
:1041E000184700002DE9F04F904685B00268039112
:1041F000526F0293DDF8389005469047039911F00D
:10420000700F03D111F00F0F029B06D100232B4931
:104210002B4800931A4602F049FA95F8F2723FB91A
:104220002B6828469B6F9847384605B0BDE8F08F4D
:104230004C0004F01E0444EAD114A61E4FF0180BE3
:104240000BFB065A9AF83020D20705D51D491E48A7
:104250004FF48E6201F09CFFB8F5806F04D91949C4
:104260001A4840F27142F5E7D5F8EC020268176D82
:104270004246B84707460028D2D0601E0BFB0050CC
:10428000043048450BD00290FCF7F0FDD9F80C3013
:10429000CAF828301BB15B68029849469847182332
:1042A00003FB065696F83030A6F82C8043F0010345
:1042B00086F83030002386F83130B1E7AF5B02007A
:1042C00004011580645A0200CE5B0200F05B02001C
:1042D000D0F8EC0203685B6B18470000F8B50F4696
:1042E0001949044640F81C1B0025064604F53B719D
:1042F000F5601836B142FBD1E380BDF81830238158
:10430000A28000214FF434720DF0FAFC2822002123
:1043100004F53D700DF0F4FC0123C4E9C855C4E96F
:10432000CA55C4F8EC72A4F8F05284F8F252C4F8FA
:10433000345384F8305384F81C3384F81D5384F8C4
:104340001E532046F8BD00BFBC5C020038B50368B0
:104350005B6F0D46044698472B071FBF6A0002F0AB
:104360001E0242EAD513023B1BBF182202FB034385
:10437000D4F820539D8D236820469B6F984728468C
:1043800038BD00000368F7B55B6F0E4605469847D9
:1043900036F08F0701D1320706D10023174918489C
:1043A00000931A4602F082F9740004F01E0444EAF5
:1043B000D6141823023C03FB045494F83030DB0776
:1043C00009D42846FFF7E4FE80B10E490E4840F2BA
:1043D0008C5201F0DDFE94F831303BB1D5F8EC029F
:1043E00003683146DB6E984784F831702B689B6F09
:1043F000284603B0BDE8F040184700BFAF5B02009D
:1044000004011580645A0200085C0200036873B559
:104410005B6F0E460446984716F0700F01D13107C6
:1044200006D100231A491B4800931A4602F03EF9B0
:10443000750005F01E0545EAD6151823023D03FB5D
:10444000054595F83030DA0709D42046FFF7A0FE7D
:10445000B0B11149114840F2CC4201F099FE43F04D
:10446000020385F83030D4F8EC02036831469B6DC6
:10447000984795F831301BB131462046FFF782FF4F
:1044800023689B6F204602B0BDE87040184700BF0C
:10449000AF5B020004011580645A0200085C020050
:1044A000036810B50446DB6F984794F81C33042B5F
:1044B00002D0B4F8FA32A3B994F8F632022B10D134
:1044C000B4F8FA1231F08F000BD111F00F030AD0BB
:1044D000B4F8F83223B92046C9B2FFF797FF01209C
:1044E00010BD0020FCE71846FAE70000036873B52A
:1044F0005B6F0E460446984716F0700F01D13107E6
:1045000006D100231C491D4800931A4602F0CEF83C
:10451000750005F01E0545EAD615023D182303FB7C
:10452000054393F83020D20709D42046FFF730FE28
:10453000D8B11349134840F2F14201F029FE93F833
:1045400031301BB131462046FFF71CFF182303FB17
:104550000545314695F8303023F0020385F83030B8
:10456000D4F8EC020368DB6D984723689B6F204604
:1045700002B0BDE870401847AF5B0200040115802F
:10458000645A0200085C0200036810B50446DB6F41
:10459000984794F81C33042B02D0B4F8FA32A3B92C
:1045A00094F8F632022B10D1B4F8FA1231F08F00E1
:1045B0000BD111F00F030AD0B4F8F83223B920461A
:1045C000C9B2FFF793FF012010BD0020FCE7184699
:1045D000FAE700002DE9FF419846036803920E4672
:1045E0005B6F0746984736F08F0403D116F00F0F24
:1045F000039A06D100232049204800931A4602F06E
:1046000055F8750005F01E0545EAD6151823023D3C
:1046100003FB057595F83030DB070AD43846FFF701
:10462000B7FD044688B11649164840F2AF5201F072
:10463000AFFDAB8D434505D913491448009423467B
:104640002246DCE795F8311039B13B6838469B6F5C
:104650009847204604B0BDE8F081D7F8EC02016825
:104660000C6E3146A04704460028EED095F8313054
:10467000013385F83130E8E7AF5B020004011580B3
:10468000645A0200085C0200165C020005011580F5
:10469000036837B55B6F0D460446984715F0700FF9
:1046A00001D12A0706D100231549164800931A465E
:1046B00001F0FCFF6B0003F01E0343EAD513023B3D
:1046C000182202FB034393F83030DB070AD420465C
:1046D000FFF75EFD054660B10B490C4840F2E95218
:1046E00001F056FDD4F8EC02036829465B6E98474A
:1046F0000546236820469B6F9847284603B030BD87
:10470000AF5B020004011580645A0200085C0200DD
:104710002DE9FF419846036803920E465B6F0746FA
:10472000984736F08F0503D116F00F0F039A06D184
:1047300000232249224800931A4601F0B7FF740073
:1047400004F01E0444EAD6141823023C03FB04744C
:1047500094F83030DB070AD43846FFF719FD0546D8
:1047600088B11849184840F20A6201F011FDA38D82
:10477000434505D21549164800952B462A46DCE7E5
:1047800094F831303BB13B6838469B6F98472846D8
:1047900004B0BDE8F081D7F8EC02036831469D6EA5
:1047A0004346A847054638B194F83130A4F82E8026
:1047B000013384F83130E6E7E085E4E7675C020026
:1047C00004011580645A0200085C0200855C020046
:1047D00005011580036837B55B6F0D4604469847A1
:1047E00015F0700F01D1290706D100231249134893
:1047F00000931A4601F05AFF6A0002F01E0242EAD4
:10480000D513023B182202FB034393F83020D20752
:104810000AD42046FFF7BCFC054630B108490948D8
:1048200040F2496201F0B4FCDD8D236820469B6FA5
:104830009847284603B030BDAF5B020004011580E5
:10484000645A0200085C0200036870B50446DB6F1E
:104850000D46984794F81C2384F81C53AA42D3B2FF
:1048600026D0032B09D9032D8CBF00260126012B4E
:1048700005D9012D03D88EB103E00026F7E786B1F4
:1048800000264FF43472002104F11C000DF038FAB8
:10489000002384F81D3384F8F23216B12046FFF766
:1048A0001DFC2368294620461B6EBDE87040184752
:1048B00070BD036810B50446DB6F9847D4F8EC026E
:1048C00094F8F8120368DB6A9847B4F8F8322BB909
:1048D00002212046FFF7B8FF012010BD0321F8E7B1
:1048E000036810B50446DB6F984794F8F81284F813
:1048F0001D1351B9D4F8EC0203681B6A98470321D1
:104900002046FFF7A1FF012010BD012384F8F232F9
:10491000032384F80C3323682046DB6E9847F2E7C4
:10492000036810B50446DB6F984794F8F532C3BBB3
:1049300094F8F7320B2B34D8DFE803F0060B331072
:1049400033151A331F24292E2046BDE81040FFF7E7
:1049500079BA2046BDE81040FFF716BE2046BDE8F4
:104960001040FFF79DBD2046BDE81040FFF7A1BFF6
:104970002046BDE81040FFF725B82046BDE81040AE
:10498000FFF702BA2046BDE81040FFF7A9BF204656
:10499000BDE81040FFF707BA2046BDE81040FFF71A
:1049A0001BBA002010BD036810B5DB6F04469847A2
:1049B000002084F80C0394F82D0394F81033D4E904
:1049C000C52190B1012B0BD8022384F80C33236846
:1049D00004F53D7120469B6EBDE81040012218474A
:1049E0002046BDE81040FFF739BB042B12D120460A
:1049F000FFF796FF30B9D4F8EC020368BDE8104029
:104A0000DB6C184794F80C3373B92046BDE81040AE
:104A1000FFF7CABA032BEED00120C4E9C02184F805
:104A20000A0384F80833F0E710BD036810B5DB6FA4
:104A30000446984720460221FFF706FF002384F82A
:104A40001E332046FFF74AFB23682046DB6DBDE896
:104A500010401847036810B504465B6F984794F8F8
:104A6000F1323BB1D4F8EC0203689B69984700230C
:104A700084F8F13294F81C33012B03D9012120462C
:104A8000FFF7E2FE002384F81D3384F81E33236809
:104A900020469B6FBDE810401847036810B50446D8
:104AA0005B6F984794F8F03253B12046FFF7D2FF7E
:104AB000D4F8EC020368DB689847002384F8F032EE
:104AC000236820469B6FBDE8104018470D4B70B51A
:104AD000036090F8F03204462BB10B490B4840F2CA
:104AE000625201F055FBFFF7D8FF04F53B7504F166
:104AF0001C06B54204D0183D2846FCF7B7F9F8E784
:104B0000204670BDBC5C0200645A0200A65C020034
:104B100038B503680D46DB6F0446984745B994F8ED
:104B20001C332BB129462046BDE83840FFF78CBE28
:104B300038BD036870B50446DB6F984794F82D3391
:104B400094F8106303B97EB92046FFF721FB0546B0
:104B500050B901464FF4347204F11C000DF0D0F846
:104B600084F81D5384F8F252002384F80C3394F82F
:104B70002D3323B12046BDE87040FFF76FBAD4F85B
:104B8000EC02036856B1DB69984720460421FFF721
:104B90005BFE2046BDE87040FFF706BABDE87040F6
:104BA000DB6C1847036837B5DB6F0D460446984742
:104BB00015F0700F01D12B0706D100230F491048C3
:104BC00000931A4601F072FD6B0003F01E0343EAE6
:104BD000D5118B1E182505FB034393F8312052B1E4
:104BE000481E05FB0040013A043083F83120C368B9
:104BF0000BB1FDF7B3FC03B030BD00BFAF5B0200EB
:104C000004011580036837B5DB6F0D4604469847ED
:104C100015F0700F01D12B0706D100230F49104862
:104C200000931A4601F042FD6B0003F01E0343EAB5
:104C3000D5118B1E182505FB034393F8312052B183
:104C4000481E05FB0040013A043083F83120C36858
:104C50000BB1FDF783FC03B030BD00BFAF5B0200BA
:104C60000401158038B500230446836519B90A4646
:104C700000F013F803E0002AFAD100F046F82046CD
:104C800038BD10B5044600F053F804F14C00FCF7B1
:104C9000EDF8204610BD00F055B9032938B504469B
:104CA00007D9D31C23F003039A1A891A21F00301B0
:104CB0001A460023C4E90433E2600D4605BBC4E98B
:104CC00006512262256000F001FA00F001FAC4E901
:104CD0000A556060258184F8245004F1300000F00A
:104CE00017FA00280BDB04F1440000F009FA002851
:104CF00005DB04F1480000F003FA00EAE07038BD7B
:104D00002369013323616D08D8E737B505460846A6
:104D100001910CF0A9FB044638B1024601992846DE
:104D2000FFF7BBFF6C6103B030BD4FF0FF30FAE717
:104D300070B505680446B5B9A36A1BB1E06A4FF0C7
:104D4000FF31984704F1480000F0DCF904F1440019
:104D500000F0D8F904F1300000F0E2F96069BDE834
:104D600070400CF089BBEE6836B9EB6913B105F100
:104D700024009847AD68DEE7F36913B106F124001B
:104D80009847F668F0E773B506462731483001903A
:104D900021F0030500F0B7F9B469019806F1180392
:104DA0005CB9F3699D4223D8346A5B1BF3616219D5
:104DB000012332622560237107E02268954213D8EF
:104DC000E26872B11A60A368936000F09EF9002354
:104DD0004FF0FF32C4E90532E3612434204602B0CB
:104DE00070BDA2681A60F0E704F10803A468D7E771
:104DF00000F08BF9F2E751F8083C73B505460C4614
:104E00000BB108469847EB6833B1A4F12406B342CE
:104E100002D82B6AB34204D2002304F8203C02B02B
:104E200070BD05F14800019000F06DF9AB69019883
:104E300005F11802A3B11D6854F8241C8D420BD350
:104E40000ED144F8183C9B6844F81C3C166002B034
:104E5000BDE8704000F059B903F108029B68E9E72A
:104E6000002344F8183C1368EEE7F8B54B699B1A29
:104E70001646002BA8BFD2184A61437A4B7100F145
:104E80004407054638460C4600F03DF928460368BD
:104E90007BB359696269A1EB020CBCF1000F25DB01
:104EA000914226D19B68A36013B104F108021A61F4
:104EB0002246036842F80C3F002199601A61AB6AF0
:104EC000046020616BB195F8242052B12A68A24297
:104ED00007D1E2682AB96169E86A891B21EAE171B0
:104EE00098473846BDE8F84000F00FB903F10800D4
:104EF000CDE7A36013B104F108021A610023E36057
:104F0000DDE7F8B5144605460F46A2F1240600F089
:104F1000DFF854F8103C44F8047C0344024644F89B
:104F2000103C31462846FFF7A0FF296914F8204CB1
:104F30008C40E968761A05F13000344300F0F2F84D
:104F40002046F8BD2DE9F74F04460F4600F0C0F8A3
:104F50004FF00008054607EB000984F8248004F1AF
:104F60004406304600F0CFF8637A01336372636819
:104F70005B1B002B2368D8BF6560019301A91BB19F
:104F80005A69521B002A33DD236003B11C6130468D
:104F9000C1F8008000F0B9F8019B01A863BB019D36
:104FA0004FF0010A002D34D100F092F8002F824614
:104FB0005CDBA9EB0005002D5ADCA36A9BB13046EF
:104FC00000F0A1F8A36A43B1226832B15169E06AE6
:104FD000A1EB0A0121EAE1719847012384F824300A
:104FE000304600F092F80023237203B0BDE8F08F42
:104FF00003F108019B68C2E79D681A460021916091
:105000001146D268002AFAD1016003F108002B464C
:10501000C4E72B6AD5F808B013B105F1240098470E
:10502000AA69002A0BDB6B6913446B6100F050F82E
:10503000294602462046FFF718FF5D46B2E7E368BF
:1050400073B1AB420CD8236AAB4209D32B792269E6
:105050000133DBB213FA02F214BF2B7185F804A0FE
:1050600005F124012046FFF7C6FEE6E74FF0FF35C5
:10507000304600F048F823683BB15969A1EB0A01BA
:1050800021EAE1718D4228BF0D46304600F03DF81F
:10509000294604F1300000F048F8237A7BB130460D
:1050A00000F031F8237A3BB100233046237203B07D
:1050B000BDE8F04F00F029B8304600F026F800F0C7
:1050C00007F805464DE740F8081C704701F084BB1F
:1050D00007B501F054F970B1084B6846196800F043
:1050E00065FDDDE900014FF47A7200230AF0ECF966
:1050F00003B05DF804FB02F043F8F9E70821002053
:1051000000207047704701F043B901F057B9000023
:1051100008B5024902F00EF8002008BD8C5D0200BF
:1051200002F011B8012102F00BB808B5012341EAE1
:10513000E172194602F022F8431E5842584108BD58
:1051400003680BB10846184770470000044B002263
:10515000C3E900229A601A61024ADA60704700BF10
:10516000541E00204151010038B504460D4600216F
:1051700000F8011B10220CF0C3FD6582204638BDEB
:1051800008B542F602110248FFF7EEFF08BD00BF66
:10519000681E0020034B1A78034B53F8223003B1EA
:1051A00018477047240400207C1E0020064B012273
:1051B000C3F80823054B5A78FF2A00D1FEE7044ABA
:1051C00012885A70704700BF00F00040901E002007
:1051D000B41E0020044BD3F8402122B10022C3F8B2
:1051E0004021D3F84031704700B00040074B4FF4E6
:1051F0008032C3F808230022C3F84021044B012267
:105200001A709B6803B11847704700BF00A00040A8
:10521000B81E002070B50E460446154605F0DAF9B2
:10522000013609D02046002105F048FA29462046DB
:10523000BDE8704005F020BA70BD000008B5431C01
:1052400004D10F490F48202200F0A2FF012359B1D9
:105250001F2886BF0C4A00F01F004FF0A04203FA3F
:1052600000F0C2F8080508BD1F2886BF064A00F0F6
:105270001F004FF0A04203FA00F0C2F80C05F2E75D
:10528000935D02004F54020000030050F8B50F4632
:10529000044615461E4605F09DF901370ED094F9D7
:1052A00000003146FFF7CAFF2046012105F006FA4B
:1052B00029462046BDE8F84005F0DEB9F8BD0322D6
:1052C000FFF7A8BF13460022FFF7E0BF0022FFF759
:1052D000F9BF73B5164604461A460D46069B6EB9CD
:1052E0000193FFF797FF01350DD0019B94F9000062
:1052F000194602B0BDE87040FFF7A0BF02B0BDE89C
:105300007040FFF7C3BF02B070BD00000048704797
:10531000D05D0200024B1B680BB102481847704772
:1053200028040020D05D020000487047005E0200A3
:105330002DE9F843456895F83A600446002E49D1B6
:1053400003685B68984763681B6A834242D02C6A93
:10535000AF682862041B3048EB68874204EA030404
:1053600031D095F83B20D5E90A98A4FB0001D2B3CF
:10537000C2F1200620FA02F401FA06F6A2F1200397
:1053800021FA03F334431C4321FA02F619EB00001F
:10539000A2F1200C48EB0101C2F1200306FA02F849
:1053A00004FA0CFC24FA03F348EA0C0804FA02F2AB
:1053B00048EA0308821A61EB0801BA4271F100035E
:1053C0000AD2C5E90A21D5E90C23121946EB0306D6
:1053D000C5E90C26BDE8F883013446F10006D21B6E
:1053E00061F10001EDE733463A460AF0BDF812EBF1
:1053F000090248EB0303BA42044673F100000E466B
:1054000002D2C5E90A23DEE7013441F10006D21BCE
:1054100063F10003F5E700BF40420F00824206D966
:105420008A420BD9884294BF0020012070478842ED
:1054300006D98A428CBF00200120704701207047A6
:1054400000207047F7B5466896F83A300546002BBD
:1054500067D196F83930002B63D1FFF769FF6F6889
:105460007A68002A5FD0D7E90C01D2E9003298426D
:1054700071EB020405D32B685B6903B0BDE8F04013
:1054800018471B1A62EB0101D7E9060298428A41CC
:105490003C6906D3BA68294882420FD19C4228BF92
:1054A0001C463A6AFB6822441A40336A934229D167
:1054B0002349244840F21B1200F06AFE97F83B0093
:1054C000C8B1A0F1200CC0F12002814003FA0CFC0D
:1054D00023FA02F203FA00F01B4B41EA0C011143DC
:1054E000C01841F10001154A00230AF03DF884423A
:1054F00028BF0446D5E7A2FB033002FB0101124896
:105500001818EEE72B68019210461B6998472B6824
:105510005B689847019A0146306AFFF77FFF0028D1
:10552000A9D103B0F0BD3369306AF26818442B6822
:105530001B69104003B0BDE8F040184740420F001F
:10554000085E0200285E02003F420F002DE9F04F86
:10555000436893F8382085B00446002A62D193F856
:105560003A30002B5ED103681B6898472368DB69DB
:105570009847066836B92D492D480096334632467D
:1055800001F094F81F23012202FA03F18E425FFA20
:1055900083FA02D0013BF7D19A46D0F80480A8F1F3
:1055A00004031C2B4FF0000705D92249224800971D
:1055B0003B463A46E4E7701E204D4FF0070947F19D
:1055C000FF3109FA03F932463B46C9FB050109F0F0
:1055D000CBFF656823680390C5E900775B688B465D
:1055E00098470121039A286201FA08F8656808F1D2
:1055F000FF33C5E90339C5E9062B00230022204605
:10560000C5E90A23C5E90C23AE6085F83BA02987CC
:1056100085F83A70FFF78CFE204605B0BDE8F04FE4
:10562000FFF710BF05B0BDE8F08F00BF4C5E020071
:105630000E010480655E02000501048040420F00F7
:1056400038B505460C46FFF781FF00F0A1FE6B68F8
:105650001C60BDE8384000F0B1BE70B5044600F0F3
:1056600097FE2368DB689847636893F83A201AB17D
:10567000BDE8704000F0A2BE012283F839206368C3
:105680005B68A3B12046FFF753FE63685A68D3E90D
:105690000C60D2E90051AE4270EB010107D3D16832
:1056A00059601B68002BEAD090689847E7E7636869
:1056B000002283F839202046FFF7C4FED8E7F7B56B
:1056C000089F01900C4616461D4600F061FE0198A9
:1056D000FFF72EFE0198A7604368C4E9006559688A
:1056E000002229B9E16062B95C60FFF7ABFE0EE011
:1056F0000F68BE424F6875EB0707F3D30A46C968C7
:10570000EFE7D460D3E90C23B242AB41EDD203B052
:10571000BDE8F04000F052BE38B505460C4600F03A
:1057200037FE6A685368A34209D1DB685360284694
:10573000FFF788FEBDE8384000F040BE1346002B5E
:10574000F8D0DA68A242F9D1E268DA60F2E713B57C
:105750000446FFF7FBFE00F01BFE2046FFF7E8FDC6
:105760006368D3E90C01CDE9000100F027FEDDE913
:10577000000102B010BD08B5FFF7E9FF08BD000049
:10578000024B00221A7005F071BE00BF081F0020F6
:1057900008B505F0D9FD024B01221A7008BD00BF03
:1057A000081F002000487047A45E0200024B1B68DF
:1057B0000BB10248184770472C040020A45E020079
:1057C00091F90C2091F9041005F09CBA024B1B686A
:1057D00003B11847704700BF501F002007B5019064
:1057E00000F0D6FD019803B05DF804FB07B5019009
:1057F00000F0E4FD019803B05DF804FB007B704706
:1058000038B50D4B03600023C0E901310273044633
:105810000A480D46FCF7B4FE01F0FAFC55B1084BFE
:105820001A6862601C600548FCF7AAFE01F00EFDD4
:10583000204638BD6560F6E7E05E0200581F002094
:10584000541F0020144B10B5036004461348FCF7A6
:1058500097FE01F0DDFCA3682BB1114962680B686B
:10586000A34212D10A600F4B0C481A68A24204BF2F
:1058700000221A60FCF784FE01F0E8FC237B13B9D8
:10588000201F01F011FB204610BD19465B68A342A2
:10589000FBD14A60E7E700BFE05E0200581F00202E
:1058A000541F0020801F002010B50446FFF7CAFFD8
:1058B0002046102101F0EAFA204610BDF8B5064650
:1058C00017480D46FCF75CFE01F0A2FC154B1C6866
:1058D000A4B1A76887B138460CF0F2FDA8420BD1FD
:1058E0002A46314638460CF0DBF828B90C48FCF75C
:1058F00047FE01F0ABFC11E06468E9E7072DF5D144
:1059000009482A4631460CF0CBF80028EED104486D
:10591000FCF736FE01F09AFC044B1C682046F8BDEB
:10592000581F0020541F0020D05E0200801F00205E
:1059300000207047036870B51B69012200210446EE
:105940009847051E0DDB236802221B6900212046B3
:1059500098472368064629461B6900222046984737
:105960003546284670BD000070B50E460025C0E9DA
:1059700000550F49044630460CF010FE30442060BC
:10598000294623681A782F2A07D10133236051B999
:10599000084909482A2200F0FBFB002AF7D001330E
:1059A00001312360EDE7FFF789FF6060204670BD9D
:1059B000385F02003A5F0200615F020000687047D2
:1059C000406808B520B1FFF719FF431E58425841FF
:1059D00008BD10B50446FFF7F3FF10B1606800B1D1
:1059E000043810BD406808B520B1FFF707FFB0FAD2
:1059F00080F0400908BD10B50446FFF7F3FF10B171
:105A0000606800B1043810BD4068003818BF01203C
:105A1000704700207047F8B503681B6D0D460446BB
:105A20008F1898472E46BE42236806D09B6C16F806
:105A3000011B204698470130F5D1236820465B6D55
:105A40009847701BF8BDF8B503681B6D0D460446FA
:105A50008F1898472E46BE42236807D0DB6C20463D
:105A60009847431C02D006F8010BF4E72368204650
:105A70005B6D9847701BF8BD0020704770470000B1
:105A80000F4B13B50022044640F8043BFFF7B8FE65
:105A90000C4B236060336360002363610A49204636
:105AA00001F060FA0346606128B900900246074998
:105AB000074800F0FBFD00F0BBFF204602B010BD20
:105AC000F05E0200E85F02006A5F02006D5F0200A4
:105AD000190101800A4B03F10802683310B504462E
